{
  "_format": "hh-sol-artifact-1",
  "contractName": "NFTMarketplace",
  "sourceName": "contracts/NFTMarketplace.sol",
  "abi": [
    {
      "inputs": [],
      "stateMutability": "nonpayable",
      "type": "constructor"
    },
    {
      "anonymous": false,
      "inputs": [
        {
          "indexed": true,
          "internalType": "address",
          "name": "owner",
          "type": "address"
        },
        {
          "indexed": true,
          "internalType": "address",
          "name": "approved",
          "type": "address"
        },
        {
          "indexed": true,
          "internalType": "uint256",
          "name": "tokenId",
          "type": "uint256"
        }
      ],
      "name": "Approval",
      "type": "event"
    },
    {
      "anonymous": false,
      "inputs": [
        {
          "indexed": true,
          "internalType": "address",
          "name": "owner",
          "type": "address"
        },
        {
          "indexed": true,
          "internalType": "address",
          "name": "operator",
          "type": "address"
        },
        {
          "indexed": false,
          "internalType": "bool",
          "name": "approved",
          "type": "bool"
        }
      ],
      "name": "ApprovalForAll",
      "type": "event"
    },
    {
      "anonymous": false,
      "inputs": [
        {
          "indexed": true,
          "internalType": "uint256",
          "name": "tokenId",
          "type": "uint256"
        },
        {
          "indexed": false,
          "internalType": "address",
          "name": "seller",
          "type": "address"
        },
        {
          "indexed": false,
          "internalType": "address",
          "name": "owner",
          "type": "address"
        },
        {
          "indexed": false,
          "internalType": "uint256",
          "name": "price",
          "type": "uint256"
        },
        {
          "indexed": false,
          "internalType": "bool",
          "name": "sold",
          "type": "bool"
        }
      ],
      "name": "MarketItemCreated",
      "type": "event"
    },
    {
      "anonymous": false,
      "inputs": [
        {
          "indexed": true,
          "internalType": "address",
          "name": "from",
          "type": "address"
        },
        {
          "indexed": true,
          "internalType": "address",
          "name": "to",
          "type": "address"
        },
        {
          "indexed": true,
          "internalType": "uint256",
          "name": "tokenId",
          "type": "uint256"
        }
      ],
      "name": "Transfer",
      "type": "event"
    },
    {
      "inputs": [
        {
          "internalType": "address",
          "name": "to",
          "type": "address"
        },
        {
          "internalType": "uint256",
          "name": "tokenId",
          "type": "uint256"
        }
      ],
      "name": "approve",
      "outputs": [],
      "stateMutability": "nonpayable",
      "type": "function"
    },
    {
      "inputs": [
        {
          "internalType": "address",
          "name": "owner",
          "type": "address"
        }
      ],
      "name": "balanceOf",
      "outputs": [
        {
          "internalType": "uint256",
          "name": "",
          "type": "uint256"
        }
      ],
      "stateMutability": "view",
      "type": "function"
    },
    {
      "inputs": [
        {
          "internalType": "uint256",
          "name": "tokenId",
          "type": "uint256"
        }
      ],
      "name": "cancelListing",
      "outputs": [],
      "stateMutability": "nonpayable",
      "type": "function"
    },
    {
      "inputs": [
        {
          "internalType": "uint256",
          "name": "tokenId",
          "type": "uint256"
        }
      ],
      "name": "createMarketSale",
      "outputs": [],
      "stateMutability": "payable",
      "type": "function"
    },
    {
      "inputs": [
        {
          "internalType": "string",
          "name": "tokenURI",
          "type": "string"
        },
        {
          "internalType": "uint256",
          "name": "price",
          "type": "uint256"
        }
      ],
      "name": "createToken",
      "outputs": [
        {
          "internalType": "uint256",
          "name": "",
          "type": "uint256"
        }
      ],
      "stateMutability": "payable",
      "type": "function"
    },
    {
      "inputs": [],
      "name": "fetchItemsListed",
      "outputs": [
        {
          "components": [
            {
              "internalType": "uint256",
              "name": "tokenId",
              "type": "uint256"
            },
            {
              "internalType": "address payable",
              "name": "seller",
              "type": "address"
            },
            {
              "internalType": "address payable",
              "name": "owner",
              "type": "address"
            },
            {
              "internalType": "uint256",
              "name": "price",
              "type": "uint256"
            },
            {
              "internalType": "bool",
              "name": "sold",
              "type": "bool"
            }
          ],
          "internalType": "struct NFTMarketplace.MarketItem[]",
          "name": "",
          "type": "tuple[]"
        }
      ],
      "stateMutability": "view",
      "type": "function"
    },
    {
      "inputs": [],
      "name": "fetchMarketItems",
      "outputs": [
        {
          "components": [
            {
              "internalType": "uint256",
              "name": "tokenId",
              "type": "uint256"
            },
            {
              "internalType": "address payable",
              "name": "seller",
              "type": "address"
            },
            {
              "internalType": "address payable",
              "name": "owner",
              "type": "address"
            },
            {
              "internalType": "uint256",
              "name": "price",
              "type": "uint256"
            },
            {
              "internalType": "bool",
              "name": "sold",
              "type": "bool"
            }
          ],
          "internalType": "struct NFTMarketplace.MarketItem[]",
          "name": "",
          "type": "tuple[]"
        }
      ],
      "stateMutability": "view",
      "type": "function"
    },
    {
      "inputs": [],
      "name": "fetchMyNFTs",
      "outputs": [
        {
          "components": [
            {
              "internalType": "uint256",
              "name": "tokenId",
              "type": "uint256"
            },
            {
              "internalType": "address payable",
              "name": "seller",
              "type": "address"
            },
            {
              "internalType": "address payable",
              "name": "owner",
              "type": "address"
            },
            {
              "internalType": "uint256",
              "name": "price",
              "type": "uint256"
            },
            {
              "internalType": "bool",
              "name": "sold",
              "type": "bool"
            }
          ],
          "internalType": "struct NFTMarketplace.MarketItem[]",
          "name": "",
          "type": "tuple[]"
        }
      ],
      "stateMutability": "view",
      "type": "function"
    },
    {
      "inputs": [
        {
          "internalType": "uint256",
          "name": "tokenId",
          "type": "uint256"
        }
      ],
      "name": "getApproved",
      "outputs": [
        {
          "internalType": "address",
          "name": "",
          "type": "address"
        }
      ],
      "stateMutability": "view",
      "type": "function"
    },
    {
      "inputs": [],
      "name": "getListingPrice",
      "outputs": [
        {
          "internalType": "uint256",
          "name": "",
          "type": "uint256"
        }
      ],
      "stateMutability": "view",
      "type": "function"
    },
    {
      "inputs": [
        {
          "internalType": "address",
          "name": "owner",
          "type": "address"
        },
        {
          "internalType": "address",
          "name": "operator",
          "type": "address"
        }
      ],
      "name": "isApprovedForAll",
      "outputs": [
        {
          "internalType": "bool",
          "name": "",
          "type": "bool"
        }
      ],
      "stateMutability": "view",
      "type": "function"
    },
    {
      "inputs": [
        {
          "internalType": "string",
          "name": "tokenURI",
          "type": "string"
        }
      ],
      "name": "mintToken",
      "outputs": [
        {
          "internalType": "uint256",
          "name": "",
          "type": "uint256"
        }
      ],
      "stateMutability": "nonpayable",
      "type": "function"
    },
    {
      "inputs": [],
      "name": "name",
      "outputs": [
        {
          "internalType": "string",
          "name": "",
          "type": "string"
        }
      ],
      "stateMutability": "view",
      "type": "function"
    },
    {
      "inputs": [
        {
          "internalType": "uint256",
          "name": "tokenId",
          "type": "uint256"
        }
      ],
      "name": "ownerOf",
      "outputs": [
        {
          "internalType": "address",
          "name": "",
          "type": "address"
        }
      ],
      "stateMutability": "view",
      "type": "function"
    },
    {
      "inputs": [
        {
          "internalType": "uint256",
          "name": "tokenId",
          "type": "uint256"
        },
        {
          "internalType": "uint256",
          "name": "price",
          "type": "uint256"
        }
      ],
      "name": "resellToken",
      "outputs": [],
      "stateMutability": "payable",
      "type": "function"
    },
    {
      "inputs": [
        {
          "internalType": "address",
          "name": "from",
          "type": "address"
        },
        {
          "internalType": "address",
          "name": "to",
          "type": "address"
        },
        {
          "internalType": "uint256",
          "name": "tokenId",
          "type": "uint256"
        }
      ],
      "name": "safeTransferFrom",
      "outputs": [],
      "stateMutability": "nonpayable",
      "type": "function"
    },
    {
      "inputs": [
        {
          "internalType": "address",
          "name": "from",
          "type": "address"
        },
        {
          "internalType": "address",
          "name": "to",
          "type": "address"
        },
        {
          "internalType": "uint256",
          "name": "tokenId",
          "type": "uint256"
        },
        {
          "internalType": "bytes",
          "name": "_data",
          "type": "bytes"
        }
      ],
      "name": "safeTransferFrom",
      "outputs": [],
      "stateMutability": "nonpayable",
      "type": "function"
    },
    {
      "inputs": [
        {
          "internalType": "address",
          "name": "operator",
          "type": "address"
        },
        {
          "internalType": "bool",
          "name": "approved",
          "type": "bool"
        }
      ],
      "name": "setApprovalForAll",
      "outputs": [],
      "stateMutability": "nonpayable",
      "type": "function"
    },
    {
      "inputs": [
        {
          "internalType": "bytes4",
          "name": "interfaceId",
          "type": "bytes4"
        }
      ],
      "name": "supportsInterface",
      "outputs": [
        {
          "internalType": "bool",
          "name": "",
          "type": "bool"
        }
      ],
      "stateMutability": "view",
      "type": "function"
    },
    {
      "inputs": [],
      "name": "symbol",
      "outputs": [
        {
          "internalType": "string",
          "name": "",
          "type": "string"
        }
      ],
      "stateMutability": "view",
      "type": "function"
    },
    {
      "inputs": [
        {
          "internalType": "uint256",
          "name": "tokenId",
          "type": "uint256"
        }
      ],
      "name": "tokenURI",
      "outputs": [
        {
          "internalType": "string",
          "name": "",
          "type": "string"
        }
      ],
      "stateMutability": "view",
      "type": "function"
    },
    {
      "inputs": [
        {
          "internalType": "address",
          "name": "from",
          "type": "address"
        },
        {
          "internalType": "address",
          "name": "to",
          "type": "address"
        },
        {
          "internalType": "uint256",
          "name": "tokenId",
          "type": "uint256"
        }
      ],
      "name": "transferFrom",
      "outputs": [],
      "stateMutability": "nonpayable",
      "type": "function"
    },
    {
      "inputs": [
        {
          "internalType": "uint256",
          "name": "_listingPrice",
          "type": "uint256"
        }
      ],
      "name": "updateListingPrice",
      "outputs": [],
      "stateMutability": "payable",
      "type": "function"
    }
  ],
  "bytecode": "0x60806040526658d15e176280006009553480156200001c57600080fd5b506040518060400160405280601081526020017f4d657461766572736520546f6b656e73000000000000000000000000000000008152506040518060400160405280600481526020017f4d455454000000000000000000000000000000000000000000000000000000008152508160009080519060200190620000a192919062000104565b508060019080519060200190620000ba92919062000104565b50505033600a60006101000a81548173ffffffffffffffffffffffffffffffffffffffff021916908373ffffffffffffffffffffffffffffffffffffffff16021790555062000219565b8280546200011290620001b4565b90600052602060002090601f01602090048101928262000136576000855562000182565b82601f106200015157805160ff191683800117855562000182565b8280016001018555821562000182579182015b828111156200018157825182559160200191906001019062000164565b5b50905062000191919062000195565b5090565b5b80821115620001b057600081600090555060010162000196565b5090565b60006002820490506001821680620001cd57607f821691505b60208210811415620001e457620001e3620001ea565b5b50919050565b7f4e487b7100000000000000000000000000000000000000000000000000000000600052602260045260246000fd5b61499880620002296000396000f3fe6080604052600436106101405760003560e01c806345f8fa80116100b6578063ae677aa31161006f578063ae677aa314610475578063b88d4fde14610491578063be9af536146104ba578063c87b56dd146104d6578063e219fc7514610513578063e985e9c51461052f57610140565b806345f8fa801461034c5780636352211e1461037757806370a08231146103b457806372b3b620146103f157806395d89b4114610421578063a22cb4651461044c57610140565b806312e855851161010857806312e855851461023e578063202e37401461026957806323b872dd14610294578063305a67a8146102bd57806333eba49a146102e657806342842e0e1461032357610140565b806301ffc9a71461014557806306fdde0314610182578063081812fc146101ad578063095ea7b3146101ea5780630f08efe014610213575b600080fd5b34801561015157600080fd5b5061016c6004803603810190610167919061332d565b61056c565b6040516101799190613ab1565b60405180910390f35b34801561018e57600080fd5b5061019761064e565b6040516101a49190613acc565b60405180910390f35b3480156101b957600080fd5b506101d460048036038101906101cf9190613414565b6106e0565b6040516101e191906139e3565b60405180910390f35b3480156101f657600080fd5b50610211600480360381019061020c91906132f1565b610765565b005b34801561021f57600080fd5b5061022861087d565b6040516102359190613a8f565b60405180910390f35b34801561024a57600080fd5b50610253610b32565b6040516102609190613e0e565b60405180910390f35b34801561027557600080fd5b5061027e610b3c565b60405161028b9190613a8f565b60405180910390f35b3480156102a057600080fd5b506102bb60048036038101906102b691906131eb565b610e76565b005b3480156102c957600080fd5b506102e460048036038101906102df9190613414565b610ed6565b005b3480156102f257600080fd5b5061030d6004803603810190610308919061337f565b61117a565b60405161031a9190613e0e565b60405180910390f35b34801561032f57600080fd5b5061034a600480360381019061034591906131eb565b6112eb565b005b34801561035857600080fd5b5061036161130b565b60405161036e9190613a8f565b60405180910390f35b34801561038357600080fd5b5061039e60048036038101906103999190613414565b611645565b6040516103ab91906139e3565b60405180910390f35b3480156103c057600080fd5b506103db60048036038101906103d69190613186565b6116f7565b6040516103e89190613e0e565b60405180910390f35b61040b600480360381019061040691906133c0565b6117af565b6040516104189190613e0e565b60405180910390f35b34801561042d57600080fd5b506104366117f1565b6040516104439190613acc565b60405180910390f35b34801561045857600080fd5b50610473600480360381019061046e91906132b5565b611883565b005b61048f600480360381019061048a9190613414565b611899565b005b34801561049d57600080fd5b506104b860048036038101906104b3919061323a565b611933565b005b6104d460048036038101906104cf9190613414565b611995565b005b3480156104e257600080fd5b506104fd60048036038101906104f89190613414565b611bcd565b60405161050a9190613acc565b60405180910390f35b61052d6004803603810190610528919061343d565b611d1f565b005b34801561053b57600080fd5b50610556600480360381019061055191906131af565b611f14565b6040516105639190613ab1565b60405180910390f35b60007f80ac58cd000000000000000000000000000000000000000000000000000000007bffffffffffffffffffffffffffffffffffffffffffffffffffffffff1916827bffffffffffffffffffffffffffffffffffffffffffffffffffffffff1916148061063757507f5b5e139f000000000000000000000000000000000000000000000000000000007bffffffffffffffffffffffffffffffffffffffffffffffffffffffff1916827bffffffffffffffffffffffffffffffffffffffffffffffffffffffff1916145b80610647575061064682611fa8565b5b9050919050565b60606000805461065d906140af565b80601f0160208091040260200160405190810160405280929190818152602001828054610689906140af565b80156106d65780601f106106ab576101008083540402835291602001916106d6565b820191906000526020600020905b8154815290600101906020018083116106b957829003601f168201915b5050505050905090565b60006106eb82612012565b61072a576040517f08c379a000000000000000000000000000000000000000000000000000000000815260040161072190613cee565b60405180910390fd5b6004600083815260200190815260200160002060009054906101000a900473ffffffffffffffffffffffffffffffffffffffff169050919050565b600061077082611645565b90508073ffffffffffffffffffffffffffffffffffffffff168373ffffffffffffffffffffffffffffffffffffffff1614156107e1576040517f08c379a00000000000000000000000000000000000000000000000000000000081526004016107d890613d4e565b60405180910390fd5b8073ffffffffffffffffffffffffffffffffffffffff1661080061207e565b73ffffffffffffffffffffffffffffffffffffffff16148061082f575061082e8161082961207e565b611f14565b5b61086e576040517f08c379a000000000000000000000000000000000000000000000000000000000815260040161086590613bee565b60405180910390fd5b6108788383612086565b505050565b6060600061088b600761213f565b90506000610899600861213f565b6108a3600761213f565b6108ad9190613fb3565b90506000808267ffffffffffffffff8111156108f2577f4e487b7100000000000000000000000000000000000000000000000000000000600052604160045260246000fd5b60405190808252806020026020018201604052801561092b57816020015b610918612f4d565b8152602001906001900390816109105790505b50905060005b84811015610b27573073ffffffffffffffffffffffffffffffffffffffff16600b60006001846109619190613f2c565b815260200190815260200160002060020160009054906101000a900473ffffffffffffffffffffffffffffffffffffffff1673ffffffffffffffffffffffffffffffffffffffff161415610b145760006001826109be9190613f2c565b90506000600b60008381526020019081526020016000209050806040518060a0016040529081600082015481526020016001820160009054906101000a900473ffffffffffffffffffffffffffffffffffffffff1673ffffffffffffffffffffffffffffffffffffffff1673ffffffffffffffffffffffffffffffffffffffff1681526020016002820160009054906101000a900473ffffffffffffffffffffffffffffffffffffffff1673ffffffffffffffffffffffffffffffffffffffff1673ffffffffffffffffffffffffffffffffffffffff168152602001600382015481526020016004820160009054906101000a900460ff161515151581525050848681518110610af7577f4e487b7100000000000000000000000000000000000000000000000000000000600052603260045260246000fd5b6020026020010181905250600185610b0f9190613f2c565b945050505b8080610b1f90614112565b915050610931565b508094505050505090565b6000600954905090565b60606000610b4a600761213f565b905060008060005b83811015610bf3573373ffffffffffffffffffffffffffffffffffffffff16600b6000600184610b829190613f2c565b815260200190815260200160002060020160009054906101000a900473ffffffffffffffffffffffffffffffffffffffff1673ffffffffffffffffffffffffffffffffffffffff161415610be057600183610bdd9190613f2c565b92505b8080610beb90614112565b915050610b52565b5060008267ffffffffffffffff811115610c36577f4e487b7100000000000000000000000000000000000000000000000000000000600052604160045260246000fd5b604051908082528060200260200182016040528015610c6f57816020015b610c5c612f4d565b815260200190600190039081610c545790505b50905060005b84811015610e6b573373ffffffffffffffffffffffffffffffffffffffff16600b6000600184610ca59190613f2c565b815260200190815260200160002060020160009054906101000a900473ffffffffffffffffffffffffffffffffffffffff1673ffffffffffffffffffffffffffffffffffffffff161415610e58576000600182610d029190613f2c565b90506000600b60008381526020019081526020016000209050806040518060a0016040529081600082015481526020016001820160009054906101000a900473ffffffffffffffffffffffffffffffffffffffff1673ffffffffffffffffffffffffffffffffffffffff1673ffffffffffffffffffffffffffffffffffffffff1681526020016002820160009054906101000a900473ffffffffffffffffffffffffffffffffffffffff1673ffffffffffffffffffffffffffffffffffffffff1673ffffffffffffffffffffffffffffffffffffffff168152602001600382015481526020016004820160009054906101000a900460ff161515151581525050848681518110610e3b577f4e487b7100000000000000000000000000000000000000000000000000000000600052603260045260246000fd5b6020026020010181905250600185610e539190613f2c565b945050505b8080610e6390614112565b915050610c75565b508094505050505090565b610e87610e8161207e565b8261214d565b610ec6576040517f08c379a0000000000000000000000000000000000000000000000000000000008152600401610ebd90613dae565b60405180910390fd5b610ed183838361222b565b505050565b3373ffffffffffffffffffffffffffffffffffffffff16600b600083815260200190815260200160002060010160009054906101000a900473ffffffffffffffffffffffffffffffffffffffff1673ffffffffffffffffffffffffffffffffffffffff1614610f7a576040517f08c379a0000000000000000000000000000000000000000000000000000000008152600401610f7190613aee565b60405180910390fd5b60001515600b600083815260200190815260200160002060040160009054906101000a900460ff16151514610fe4576040517f08c379a0000000000000000000000000000000000000000000000000000000008152600401610fdb90613d2e565b60405180910390fd5b3073ffffffffffffffffffffffffffffffffffffffff16600b600083815260200190815260200160002060020160009054906101000a900473ffffffffffffffffffffffffffffffffffffffff1673ffffffffffffffffffffffffffffffffffffffff1614611088576040517f08c379a000000000000000000000000000000000000000000000000000000000815260040161107f90613d6e565b60405180910390fd5b33600b600083815260200190815260200160002060020160006101000a81548173ffffffffffffffffffffffffffffffffffffffff021916908373ffffffffffffffffffffffffffffffffffffffff1602179055506000600b600083815260200190815260200160002060010160006101000a81548173ffffffffffffffffffffffffffffffffffffffff021916908373ffffffffffffffffffffffffffffffffffffffff1602179055506001600b600083815260200190815260200160002060040160006101000a81548160ff02191690831515021790555061116c6008612492565b61117730338361222b565b50565b60006111866007612492565b6000611192600761213f565b905061119e33826124a8565b6111a88184612682565b6040518060a00160405280828152602001600073ffffffffffffffffffffffffffffffffffffffff1681526020013373ffffffffffffffffffffffffffffffffffffffff1681526020016000815260200160011515815250600b60008381526020019081526020016000206000820151816000015560208201518160010160006101000a81548173ffffffffffffffffffffffffffffffffffffffff021916908373ffffffffffffffffffffffffffffffffffffffff16021790555060408201518160020160006101000a81548173ffffffffffffffffffffffffffffffffffffffff021916908373ffffffffffffffffffffffffffffffffffffffff1602179055506060820151816003015560808201518160040160006101000a81548160ff0219169083151502179055509050506112e26008612492565b80915050919050565b61130683838360405180602001604052806000815250611933565b505050565b60606000611319600761213f565b905060008060005b838110156113c2573373ffffffffffffffffffffffffffffffffffffffff16600b60006001846113519190613f2c565b815260200190815260200160002060010160009054906101000a900473ffffffffffffffffffffffffffffffffffffffff1673ffffffffffffffffffffffffffffffffffffffff1614156113af576001836113ac9190613f2c565b92505b80806113ba90614112565b915050611321565b5060008267ffffffffffffffff811115611405577f4e487b7100000000000000000000000000000000000000000000000000000000600052604160045260246000fd5b60405190808252806020026020018201604052801561143e57816020015b61142b612f4d565b8152602001906001900390816114235790505b50905060005b8481101561163a573373ffffffffffffffffffffffffffffffffffffffff16600b60006001846114749190613f2c565b815260200190815260200160002060010160009054906101000a900473ffffffffffffffffffffffffffffffffffffffff1673ffffffffffffffffffffffffffffffffffffffff1614156116275760006001826114d19190613f2c565b90506000600b60008381526020019081526020016000209050806040518060a0016040529081600082015481526020016001820160009054906101000a900473ffffffffffffffffffffffffffffffffffffffff1673ffffffffffffffffffffffffffffffffffffffff1673ffffffffffffffffffffffffffffffffffffffff1681526020016002820160009054906101000a900473ffffffffffffffffffffffffffffffffffffffff1673ffffffffffffffffffffffffffffffffffffffff1673ffffffffffffffffffffffffffffffffffffffff168152602001600382015481526020016004820160009054906101000a900460ff16151515158152505084868151811061160a577f4e487b7100000000000000000000000000000000000000000000000000000000600052603260045260246000fd5b60200260200101819052506001856116229190613f2c565b945050505b808061163290614112565b915050611444565b508094505050505090565b6000806002600084815260200190815260200160002060009054906101000a900473ffffffffffffffffffffffffffffffffffffffff169050600073ffffffffffffffffffffffffffffffffffffffff168173ffffffffffffffffffffffffffffffffffffffff1614156116ee576040517f08c379a00000000000000000000000000000000000000000000000000000000081526004016116e590613c2e565b60405180910390fd5b80915050919050565b60008073ffffffffffffffffffffffffffffffffffffffff168273ffffffffffffffffffffffffffffffffffffffff161415611768576040517f08c379a000000000000000000000000000000000000000000000000000000000815260040161175f90613c0e565b60405180910390fd5b600360008373ffffffffffffffffffffffffffffffffffffffff1673ffffffffffffffffffffffffffffffffffffffff168152602001908152602001600020549050919050565b60006117bb6007612492565b60006117c7600761213f565b90506117d333826124a8565b6117dd8185612682565b6117e781846126f6565b8091505092915050565b606060018054611800906140af565b80601f016020809104026020016040519081016040528092919081815260200182805461182c906140af565b80156118795780601f1061184e57610100808354040283529160200191611879565b820191906000526020600020905b81548152906001019060200180831161185c57829003601f168201915b5050505050905090565b61189561188e61207e565b83836128f9565b5050565b3373ffffffffffffffffffffffffffffffffffffffff16600a60009054906101000a900473ffffffffffffffffffffffffffffffffffffffff1673ffffffffffffffffffffffffffffffffffffffff1614611929576040517f08c379a000000000000000000000000000000000000000000000000000000000815260040161192090613dce565b60405180910390fd5b8060098190555050565b61194461193e61207e565b8361214d565b611983576040517f08c379a000000000000000000000000000000000000000000000000000000000815260040161197a90613dae565b60405180910390fd5b61198f84848484612a66565b50505050565b6000600b60008381526020019081526020016000206003015490508034146119f2576040517f08c379a00000000000000000000000000000000000000000000000000000000081526004016119e990613c6e565b60405180910390fd5b33600b600084815260200190815260200160002060020160006101000a81548173ffffffffffffffffffffffffffffffffffffffff021916908373ffffffffffffffffffffffffffffffffffffffff1602179055506001600b600084815260200190815260200160002060040160006101000a81548160ff0219169083151502179055506000600b600084815260200190815260200160002060010160006101000a81548173ffffffffffffffffffffffffffffffffffffffff021916908373ffffffffffffffffffffffffffffffffffffffff160217905550611ad66008612492565b611ae130338461222b565b600a60009054906101000a900473ffffffffffffffffffffffffffffffffffffffff1673ffffffffffffffffffffffffffffffffffffffff166108fc6009549081150290604051600060405180830381858888f19350505050158015611b4b573d6000803e3d6000fd5b50600b600083815260200190815260200160002060010160009054906101000a900473ffffffffffffffffffffffffffffffffffffffff1673ffffffffffffffffffffffffffffffffffffffff166108fc349081150290604051600060405180830381858888f19350505050158015611bc8573d6000803e3d6000fd5b505050565b6060611bd882612012565b611c17576040517f08c379a0000000000000000000000000000000000000000000000000000000008152600401611c0e90613cae565b60405180910390fd5b6000600660008481526020019081526020016000208054611c37906140af565b80601f0160208091040260200160405190810160405280929190818152602001828054611c63906140af565b8015611cb05780601f10611c8557610100808354040283529160200191611cb0565b820191906000526020600020905b815481529060010190602001808311611c9357829003601f168201915b505050505090506000611cc1612ac2565b9050600081511415611cd7578192505050611d1a565b600082511115611d0c578082604051602001611cf49291906139bf565b60405160208183030381529060405292505050611d1a565b611d1584612ad9565b925050505b919050565b3373ffffffffffffffffffffffffffffffffffffffff16600b600084815260200190815260200160002060020160009054906101000a900473ffffffffffffffffffffffffffffffffffffffff1673ffffffffffffffffffffffffffffffffffffffff1614611dc3576040517f08c379a0000000000000000000000000000000000000000000000000000000008152600401611dba90613cce565b60405180910390fd5b6009543414611e07576040517f08c379a0000000000000000000000000000000000000000000000000000000008152600401611dfe90613d8e565b60405180910390fd5b6000600b600084815260200190815260200160002060040160006101000a81548160ff02191690831515021790555080600b60008481526020019081526020016000206003018190555033600b600084815260200190815260200160002060010160006101000a81548173ffffffffffffffffffffffffffffffffffffffff021916908373ffffffffffffffffffffffffffffffffffffffff16021790555030600b600084815260200190815260200160002060020160006101000a81548173ffffffffffffffffffffffffffffffffffffffff021916908373ffffffffffffffffffffffffffffffffffffffff160217905550611f056008612b80565b611f1033308461222b565b5050565b6000600560008473ffffffffffffffffffffffffffffffffffffffff1673ffffffffffffffffffffffffffffffffffffffff16815260200190815260200160002060008373ffffffffffffffffffffffffffffffffffffffff1673ffffffffffffffffffffffffffffffffffffffff16815260200190815260200160002060009054906101000a900460ff16905092915050565b60007f01ffc9a7000000000000000000000000000000000000000000000000000000007bffffffffffffffffffffffffffffffffffffffffffffffffffffffff1916827bffffffffffffffffffffffffffffffffffffffffffffffffffffffff1916149050919050565b60008073ffffffffffffffffffffffffffffffffffffffff166002600084815260200190815260200160002060009054906101000a900473ffffffffffffffffffffffffffffffffffffffff1673ffffffffffffffffffffffffffffffffffffffff1614159050919050565b600033905090565b816004600083815260200190815260200160002060006101000a81548173ffffffffffffffffffffffffffffffffffffffff021916908373ffffffffffffffffffffffffffffffffffffffff160217905550808273ffffffffffffffffffffffffffffffffffffffff166120f983611645565b73ffffffffffffffffffffffffffffffffffffffff167f8c5be1e5ebec7d5bd14f71427d1e84f3dd0314c0f7b2291e5b200ac8c7c3b92560405160405180910390a45050565b600081600001549050919050565b600061215882612012565b612197576040517f08c379a000000000000000000000000000000000000000000000000000000000815260040161218e90613bce565b60405180910390fd5b60006121a283611645565b90508073ffffffffffffffffffffffffffffffffffffffff168473ffffffffffffffffffffffffffffffffffffffff16148061221157508373ffffffffffffffffffffffffffffffffffffffff166121f9846106e0565b73ffffffffffffffffffffffffffffffffffffffff16145b8061222257506122218185611f14565b5b91505092915050565b8273ffffffffffffffffffffffffffffffffffffffff1661224b82611645565b73ffffffffffffffffffffffffffffffffffffffff16146122a1576040517f08c379a000000000000000000000000000000000000000000000000000000000815260040161229890613b4e565b60405180910390fd5b600073ffffffffffffffffffffffffffffffffffffffff168273ffffffffffffffffffffffffffffffffffffffff161415612311576040517f08c379a000000000000000000000000000000000000000000000000000000000815260040161230890613b8e565b60405180910390fd5b61231c838383612bdc565b612327600082612086565b6001600360008573ffffffffffffffffffffffffffffffffffffffff1673ffffffffffffffffffffffffffffffffffffffff16815260200190815260200160002060008282546123779190613fb3565b925050819055506001600360008473ffffffffffffffffffffffffffffffffffffffff1673ffffffffffffffffffffffffffffffffffffffff16815260200190815260200160002060008282546123ce9190613f2c565b92505081905550816002600083815260200190815260200160002060006101000a81548173ffffffffffffffffffffffffffffffffffffffff021916908373ffffffffffffffffffffffffffffffffffffffff160217905550808273ffffffffffffffffffffffffffffffffffffffff168473ffffffffffffffffffffffffffffffffffffffff167fddf252ad1be2c89b69c2b068fc378daa952ba7f163c4a11628f55a4df523b3ef60405160405180910390a461248d838383612be1565b505050565b6001816000016000828254019250508190555050565b600073ffffffffffffffffffffffffffffffffffffffff168273ffffffffffffffffffffffffffffffffffffffff161415612518576040517f08c379a000000000000000000000000000000000000000000000000000000000815260040161250f90613c8e565b60405180910390fd5b61252181612012565b15612561576040517f08c379a000000000000000000000000000000000000000000000000000000000815260040161255890613b6e565b60405180910390fd5b61256d60008383612bdc565b6001600360008473ffffffffffffffffffffffffffffffffffffffff1673ffffffffffffffffffffffffffffffffffffffff16815260200190815260200160002060008282546125bd9190613f2c565b92505081905550816002600083815260200190815260200160002060006101000a81548173ffffffffffffffffffffffffffffffffffffffff021916908373ffffffffffffffffffffffffffffffffffffffff160217905550808273ffffffffffffffffffffffffffffffffffffffff16600073ffffffffffffffffffffffffffffffffffffffff167fddf252ad1be2c89b69c2b068fc378daa952ba7f163c4a11628f55a4df523b3ef60405160405180910390a461267e60008383612be1565b5050565b61268b82612012565b6126ca576040517f08c379a00000000000000000000000000000000000000000000000000000000081526004016126c190613c4e565b60405180910390fd5b806006600084815260200190815260200160002090805190602001906126f1929190612faa565b505050565b60008111612739576040517f08c379a000000000000000000000000000000000000000000000000000000000815260040161273090613dee565b60405180910390fd5b600954341461277d576040517f08c379a000000000000000000000000000000000000000000000000000000000815260040161277490613d8e565b60405180910390fd5b6040518060a001604052808381526020013373ffffffffffffffffffffffffffffffffffffffff1681526020013073ffffffffffffffffffffffffffffffffffffffff16815260200182815260200160001515815250600b60008481526020019081526020016000206000820151816000015560208201518160010160006101000a81548173ffffffffffffffffffffffffffffffffffffffff021916908373ffffffffffffffffffffffffffffffffffffffff16021790555060408201518160020160006101000a81548173ffffffffffffffffffffffffffffffffffffffff021916908373ffffffffffffffffffffffffffffffffffffffff1602179055506060820151816003015560808201518160040160006101000a81548160ff0219169083151502179055509050506128b633308461222b565b817fb640004f1d14576d0c209e240cad0410e0d8c0c33a09375861fbadae2588a98d33308460006040516128ed94939291906139fe565b60405180910390a25050565b8173ffffffffffffffffffffffffffffffffffffffff168373ffffffffffffffffffffffffffffffffffffffff161415612968576040517f08c379a000000000000000000000000000000000000000000000000000000000815260040161295f90613bae565b60405180910390fd5b80600560008573ffffffffffffffffffffffffffffffffffffffff1673ffffffffffffffffffffffffffffffffffffffff16815260200190815260200160002060008473ffffffffffffffffffffffffffffffffffffffff1673ffffffffffffffffffffffffffffffffffffffff16815260200190815260200160002060006101000a81548160ff0219169083151502179055508173ffffffffffffffffffffffffffffffffffffffff168373ffffffffffffffffffffffffffffffffffffffff167f17307eab39ab6107e8899845ad3d59bd9653f200f220920489ca2b5937696c3183604051612a599190613ab1565b60405180910390a3505050565b612a7184848461222b565b612a7d84848484612be6565b612abc576040517f08c379a0000000000000000000000000000000000000000000000000000000008152600401612ab390613b2e565b60405180910390fd5b50505050565b606060405180602001604052806000815250905090565b6060612ae482612012565b612b23576040517f08c379a0000000000000000000000000000000000000000000000000000000008152600401612b1a90613d0e565b60405180910390fd5b6000612b2d612ac2565b90506000815111612b4d5760405180602001604052806000815250612b78565b80612b5784612d7d565b604051602001612b689291906139bf565b6040516020818303038152906040525b915050919050565b60008160000154905060008111612bcc576040517f08c379a0000000000000000000000000000000000000000000000000000000008152600401612bc390613b0e565b60405180910390fd5b6001810382600001819055505050565b505050565b505050565b6000612c078473ffffffffffffffffffffffffffffffffffffffff16612f2a565b15612d70578373ffffffffffffffffffffffffffffffffffffffff1663150b7a02612c3061207e565b8786866040518563ffffffff1660e01b8152600401612c529493929190613a43565b602060405180830381600087803b158015612c6c57600080fd5b505af1925050508015612c9d57506040513d601f19601f82011682018060405250810190612c9a9190613356565b60015b612d20573d8060008114612ccd576040519150601f19603f3d011682016040523d82523d6000602084013e612cd2565b606091505b50600081511415612d18576040517f08c379a0000000000000000000000000000000000000000000000000000000008152600401612d0f90613b2e565b60405180910390fd5b805181602001fd5b63150b7a0260e01b7bffffffffffffffffffffffffffffffffffffffffffffffffffffffff1916817bffffffffffffffffffffffffffffffffffffffffffffffffffffffff191614915050612d75565b600190505b949350505050565b60606000821415612dc5576040518060400160405280600181526020017f30000000000000000000000000000000000000000000000000000000000000008152509050612f25565b600082905060005b60008214612df7578080612de090614112565b915050600a82612df09190613f82565b9150612dcd565b60008167ffffffffffffffff811115612e39577f4e487b7100000000000000000000000000000000000000000000000000000000600052604160045260246000fd5b6040519080825280601f01601f191660200182016040528015612e6b5781602001600182028036833780820191505090505b5090505b60008514612f1e57600182612e849190613fb3565b9150600a85612e93919061415b565b6030612e9f9190613f2c565b60f81b818381518110612edb577f4e487b7100000000000000000000000000000000000000000000000000000000600052603260045260246000fd5b60200101907effffffffffffffffffffffffffffffffffffffffffffffffffffffffffffff1916908160001a905350600a85612f179190613f82565b9450612e6f565b8093505050505b919050565b6000808273ffffffffffffffffffffffffffffffffffffffff163b119050919050565b6040518060a0016040528060008152602001600073ffffffffffffffffffffffffffffffffffffffff168152602001600073ffffffffffffffffffffffffffffffffffffffff168152602001600081526020016000151581525090565b828054612fb6906140af565b90600052602060002090601f016020900481019282612fd8576000855561301f565b82601f10612ff157805160ff191683800117855561301f565b8280016001018555821561301f579182015b8281111561301e578251825591602001919060010190613003565b5b50905061302c9190613030565b5090565b5b80821115613049576000816000905550600101613031565b5090565b600061306061305b84613e4e565b613e29565b90508281526020810184848401111561307857600080fd5b61308384828561406d565b509392505050565b600061309e61309984613e7f565b613e29565b9050828152602081018484840111156130b657600080fd5b6130c184828561406d565b509392505050565b6000813590506130d881614906565b92915050565b6000813590506130ed8161491d565b92915050565b60008135905061310281614934565b92915050565b60008151905061311781614934565b92915050565b600082601f83011261312e57600080fd5b813561313e84826020860161304d565b91505092915050565b600082601f83011261315857600080fd5b813561316884826020860161308b565b91505092915050565b6000813590506131808161494b565b92915050565b60006020828403121561319857600080fd5b60006131a6848285016130c9565b91505092915050565b600080604083850312156131c257600080fd5b60006131d0858286016130c9565b92505060206131e1858286016130c9565b9150509250929050565b60008060006060848603121561320057600080fd5b600061320e868287016130c9565b935050602061321f868287016130c9565b925050604061323086828701613171565b9150509250925092565b6000806000806080858703121561325057600080fd5b600061325e878288016130c9565b945050602061326f878288016130c9565b935050604061328087828801613171565b925050606085013567ffffffffffffffff81111561329d57600080fd5b6132a98782880161311d565b91505092959194509250565b600080604083850312156132c857600080fd5b60006132d6858286016130c9565b92505060206132e7858286016130de565b9150509250929050565b6000806040838503121561330457600080fd5b6000613312858286016130c9565b925050602061332385828601613171565b9150509250929050565b60006020828403121561333f57600080fd5b600061334d848285016130f3565b91505092915050565b60006020828403121561336857600080fd5b600061337684828501613108565b91505092915050565b60006020828403121561339157600080fd5b600082013567ffffffffffffffff8111156133ab57600080fd5b6133b784828501613147565b91505092915050565b600080604083850312156133d357600080fd5b600083013567ffffffffffffffff8111156133ed57600080fd5b6133f985828601613147565b925050602061340a85828601613171565b9150509250929050565b60006020828403121561342657600080fd5b600061343484828501613171565b91505092915050565b6000806040838503121561345057600080fd5b600061345e85828601613171565b925050602061346f85828601613171565b9150509250929050565b60006134858383613939565b60a08301905092915050565b61349a81613ff9565b82525050565b6134a981613fe7565b82525050565b60006134ba82613ec0565b6134c48185613eee565b93506134cf83613eb0565b8060005b838110156135005781516134e78882613479565b97506134f283613ee1565b9250506001810190506134d3565b5085935050505092915050565b6135168161400b565b82525050565b6135258161400b565b82525050565b600061353682613ecb565b6135408185613eff565b935061355081856020860161407c565b61355981614248565b840191505092915050565b600061356f82613ed6565b6135798185613f10565b935061358981856020860161407c565b61359281614248565b840191505092915050565b60006135a882613ed6565b6135b28185613f21565b93506135c281856020860161407c565b80840191505092915050565b60006135db602783613f10565b91506135e682614259565b604082019050919050565b60006135fe601b83613f10565b9150613609826142a8565b602082019050919050565b6000613621603283613f10565b915061362c826142d1565b604082019050919050565b6000613644602583613f10565b915061364f82614320565b604082019050919050565b6000613667601c83613f10565b91506136728261436f565b602082019050919050565b600061368a602483613f10565b915061369582614398565b604082019050919050565b60006136ad601983613f10565b91506136b8826143e7565b602082019050919050565b60006136d0602c83613f10565b91506136db82614410565b604082019050919050565b60006136f3603883613f10565b91506136fe8261445f565b604082019050919050565b6000613716602a83613f10565b9150613721826144ae565b604082019050919050565b6000613739602983613f10565b9150613744826144fd565b604082019050919050565b600061375c602e83613f10565b91506137678261454c565b604082019050919050565b600061377f604083613f10565b915061378a8261459b565b604082019050919050565b60006137a2602083613f10565b91506137ad826145ea565b602082019050919050565b60006137c5603183613f10565b91506137d082614613565b604082019050919050565b60006137e8602a83613f10565b91506137f382614662565b604082019050919050565b600061380b602c83613f10565b9150613816826146b1565b604082019050919050565b600061382e602f83613f10565b915061383982614700565b604082019050919050565b6000613851601983613f10565b915061385c8261474f565b602082019050919050565b6000613874602183613f10565b915061387f82614778565b604082019050919050565b6000613897601c83613f10565b91506138a2826147c7565b602082019050919050565b60006138ba602483613f10565b91506138c5826147f0565b604082019050919050565b60006138dd603183613f10565b91506138e88261483f565b604082019050919050565b6000613900603083613f10565b915061390b8261488e565b604082019050919050565b6000613923601c83613f10565b915061392e826148dd565b602082019050919050565b60a08201600082015161394f60008501826139a1565b5060208201516139626020850182613491565b5060408201516139756040850182613491565b50606082015161398860608501826139a1565b50608082015161399b608085018261350d565b50505050565b6139aa81614063565b82525050565b6139b981614063565b82525050565b60006139cb828561359d565b91506139d7828461359d565b91508190509392505050565b60006020820190506139f860008301846134a0565b92915050565b6000608082019050613a1360008301876134a0565b613a2060208301866134a0565b613a2d60408301856139b0565b613a3a606083018461351c565b95945050505050565b6000608082019050613a5860008301876134a0565b613a6560208301866134a0565b613a7260408301856139b0565b8181036060830152613a84818461352b565b905095945050505050565b60006020820190508181036000830152613aa981846134af565b905092915050565b6000602082019050613ac6600083018461351c565b92915050565b60006020820190508181036000830152613ae68184613564565b905092915050565b60006020820190508181036000830152613b07816135ce565b9050919050565b60006020820190508181036000830152613b27816135f1565b9050919050565b60006020820190508181036000830152613b4781613614565b9050919050565b60006020820190508181036000830152613b6781613637565b9050919050565b60006020820190508181036000830152613b878161365a565b9050919050565b60006020820190508181036000830152613ba78161367d565b9050919050565b60006020820190508181036000830152613bc7816136a0565b9050919050565b60006020820190508181036000830152613be7816136c3565b9050919050565b60006020820190508181036000830152613c07816136e6565b9050919050565b60006020820190508181036000830152613c2781613709565b9050919050565b60006020820190508181036000830152613c478161372c565b9050919050565b60006020820190508181036000830152613c678161374f565b9050919050565b60006020820190508181036000830152613c8781613772565b9050919050565b60006020820190508181036000830152613ca781613795565b9050919050565b60006020820190508181036000830152613cc7816137b8565b9050919050565b60006020820190508181036000830152613ce7816137db565b9050919050565b60006020820190508181036000830152613d07816137fe565b9050919050565b60006020820190508181036000830152613d2781613821565b9050919050565b60006020820190508181036000830152613d4781613844565b9050919050565b60006020820190508181036000830152613d6781613867565b9050919050565b60006020820190508181036000830152613d878161388a565b9050919050565b60006020820190508181036000830152613da7816138ad565b9050919050565b60006020820190508181036000830152613dc7816138d0565b9050919050565b60006020820190508181036000830152613de7816138f3565b9050919050565b60006020820190508181036000830152613e0781613916565b9050919050565b6000602082019050613e2360008301846139b0565b92915050565b6000613e33613e44565b9050613e3f82826140e1565b919050565b6000604051905090565b600067ffffffffffffffff821115613e6957613e68614219565b5b613e7282614248565b9050602081019050919050565b600067ffffffffffffffff821115613e9a57613e99614219565b5b613ea382614248565b9050602081019050919050565b6000819050602082019050919050565b600081519050919050565b600081519050919050565b600081519050919050565b6000602082019050919050565b600082825260208201905092915050565b600082825260208201905092915050565b600082825260208201905092915050565b600081905092915050565b6000613f3782614063565b9150613f4283614063565b9250827fffffffffffffffffffffffffffffffffffffffffffffffffffffffffffffffff03821115613f7757613f7661418c565b5b828201905092915050565b6000613f8d82614063565b9150613f9883614063565b925082613fa857613fa76141bb565b5b828204905092915050565b6000613fbe82614063565b9150613fc983614063565b925082821015613fdc57613fdb61418c565b5b828203905092915050565b6000613ff282614043565b9050919050565b600061400482614043565b9050919050565b60008115159050919050565b60007fffffffff0000000000000000000000000000000000000000000000000000000082169050919050565b600073ffffffffffffffffffffffffffffffffffffffff82169050919050565b6000819050919050565b82818337600083830152505050565b60005b8381101561409a57808201518184015260208101905061407f565b838111156140a9576000848401525b50505050565b600060028204905060018216806140c757607f821691505b602082108114156140db576140da6141ea565b5b50919050565b6140ea82614248565b810181811067ffffffffffffffff8211171561410957614108614219565b5b80604052505050565b600061411d82614063565b91507fffffffffffffffffffffffffffffffffffffffffffffffffffffffffffffffff8214156141505761414f61418c565b5b600182019050919050565b600061416682614063565b915061417183614063565b925082614181576141806141bb565b5b828206905092915050565b7f4e487b7100000000000000000000000000000000000000000000000000000000600052601160045260246000fd5b7f4e487b7100000000000000000000000000000000000000000000000000000000600052601260045260246000fd5b7f4e487b7100000000000000000000000000000000000000000000000000000000600052602260045260246000fd5b7f4e487b7100000000000000000000000000000000000000000000000000000000600052604160045260246000fd5b6000601f19601f8301169050919050565b7f4f6e6c79207468652073656c6c65722063616e2063616e63656c20746869732060008201527f6c697374696e6700000000000000000000000000000000000000000000000000602082015250565b7f436f756e7465723a2064656372656d656e74206f766572666c6f770000000000600082015250565b7f4552433732313a207472616e7366657220746f206e6f6e20455243373231526560008201527f63656976657220696d706c656d656e7465720000000000000000000000000000602082015250565b7f4552433732313a207472616e736665722066726f6d20696e636f72726563742060008201527f6f776e6572000000000000000000000000000000000000000000000000000000602082015250565b7f4552433732313a20746f6b656e20616c7265616479206d696e74656400000000600082015250565b7f4552433732313a207472616e7366657220746f20746865207a65726f2061646460008201527f7265737300000000000000000000000000000000000000000000000000000000602082015250565b7f4552433732313a20617070726f766520746f2063616c6c657200000000000000600082015250565b7f4552433732313a206f70657261746f7220717565727920666f72206e6f6e657860008201527f697374656e7420746f6b656e0000000000000000000000000000000000000000602082015250565b7f4552433732313a20617070726f76652063616c6c6572206973206e6f74206f7760008201527f6e6572206e6f7220617070726f76656420666f7220616c6c0000000000000000602082015250565b7f4552433732313a2062616c616e636520717565727920666f7220746865207a6560008201527f726f206164647265737300000000000000000000000000000000000000000000602082015250565b7f4552433732313a206f776e657220717565727920666f72206e6f6e657869737460008201527f656e7420746f6b656e0000000000000000000000000000000000000000000000602082015250565b7f45524337323155524953746f726167653a2055524920736574206f66206e6f6e60008201527f6578697374656e7420746f6b656e000000000000000000000000000000000000602082015250565b7f506c65617365207375626d6974207468652061736b696e67207072696365206960008201527f6e206f7264657220746f20636f6d706c65746520746865207075726368617365602082015250565b7f4552433732313a206d696e7420746f20746865207a65726f2061646472657373600082015250565b7f45524337323155524953746f726167653a2055524920717565727920666f722060008201527f6e6f6e6578697374656e7420746f6b656e000000000000000000000000000000602082015250565b7f4f6e6c79206974656d206f776e65722063616e20706572666f726d207468697360008201527f206f7065726174696f6e00000000000000000000000000000000000000000000602082015250565b7f4552433732313a20617070726f76656420717565727920666f72206e6f6e657860008201527f697374656e7420746f6b656e0000000000000000000000000000000000000000602082015250565b7f4552433732314d657461646174613a2055524920717565727920666f72206e6f60008201527f6e6578697374656e7420746f6b656e0000000000000000000000000000000000602082015250565b7f43616e6e6f742063616e63656c206120736f6c64206974656d00000000000000600082015250565b7f4552433732313a20617070726f76616c20746f2063757272656e74206f776e6560008201527f7200000000000000000000000000000000000000000000000000000000000000602082015250565b7f4974656d206973206e6f742063757272656e746c79206c697374656400000000600082015250565b7f5072696365206d75737420626520657175616c20746f206c697374696e67207060008201527f7269636500000000000000000000000000000000000000000000000000000000602082015250565b7f4552433732313a207472616e736665722063616c6c6572206973206e6f74206f60008201527f776e6572206e6f7220617070726f766564000000000000000000000000000000602082015250565b7f4f6e6c79206d61726b6574706c616365206f776e65722063616e20757064617460008201527f65206c697374696e672070726963652e00000000000000000000000000000000602082015250565b7f5072696365206d757374206265206174206c6561737420312077656900000000600082015250565b61490f81613fe7565b811461491a57600080fd5b50565b6149268161400b565b811461493157600080fd5b50565b61493d81614017565b811461494857600080fd5b50565b61495481614063565b811461495f57600080fd5b5056fea2646970667358221220d88368ad217826912f201e7cc566169a486651fe2a4d9f0036a3e2e2f2bd3e9a64736f6c63430008040033",
  "linkReferences": {},
  "deployedLinkReferences": {}
}